:020000040000fa
:080000000002040000000000f2
:020000040000fa
:100400000f8020000eff27000e0188000000000072
:100410000c00070000442000010020000f0007002e
:10042000000020000000e000020032000000020096
:100430000000000008030200000000000040da0095
:100440000000fe00000020000000e000020032007a
:10045000000020009001880000000600a102880032
:10046000800078000000eb001a003700e2804000b6
:1004700054a0b4009101ba00e280400054a0b4003e
:100480009102ba00e280400054a0b4000002eb00e8
:10049000472bde00f507b200a6018800602ce100c2
:1004a00008003a000049eb000201e80002003900b0
:1004b0003420ec0002f0a0008301e900f9ff3e00c7
:1004c000040037006128e100010032000082eb00e7
:1004d000040007001101ba000200e000e3ff3a0047
:1004e0000000060004d0a300e20f49001c00390000
:1004f000810278003549ba000201e80002003900a3
:100500003420ec0002f0a0008301e9000f0032006b
:100510002549ba000201e800020039003420ec004d
:1005200002f0a0008301e900080032000400e000ae
:100530000600320015c9ba000201e80002003900c5
:100540003420ec0002f0a0008301e9008180e80083
:1005500054a0b4000300e000e2ff3a0000000600ef
:100560009102ba00055978008301e900f7ff3200d3
:10057000c82ade00055978008301e900f3ff320044
:100580000400e000f1ff320011d9ba00eeff37009d
:080590000040da000000fe004b
:020000040000fa
:10000800c8020000c8020000c8020000c8020000c0
:10001800c8020000c8020000c8020000c8020000b0
:10002800c8020000c8020000c8020000c8020000a0
:10003800c8020000c8020000c8020000c802000090
:020000040000fa
:020000040000fa
:100598000000fa00f0bf270040168800f0ff2b008b
:1005a80080168800e0d12f00c0168800f0f32f00d5
:1005b80000178800c0ff2f0040178800f0f32f00b5
:1005c80080178800cd42a800cde2a800d5c2a800b7
:1005d800dc02a800dca2a800dcc2a800dce2a800bb
:1005e800dd22a800e4c2a800e4e2a800ec02a8000a
:1005f800ec22a800f4c2a800f4e2a80075e0a80064
:100608000080fa00000006000000fa000020220026
:10061800103a8800deff0700101780004500de0052
:10062800614060000080fb00610060004a00dd005e
:1006380062168000f1bf2f00810061000080700009
:1006480060168800101780004500de0061406000d9
:100658000080fb004f00dd0062168000f1ff2700dc
:10066800810061000080700060168800101780000b
:100678004500de00614060000080fb006100600012
:100688004e00dd00a2168000f1ff2b008100610002
:1006980000807000a0168800101780004500de005a
:1006a800614060000080fb0061006000e21680008d
:1006b800e1ff2f008100610000807000e0168800d3
:1006c800101780004500de00614060000080fb00dc
:1006d800610060004500dd00e2168000f1fd2f009a
:1006e8008100610000807000e0168800101780000b
:1006f8004500de00614060000080fb006100600092
:100708004600dd00e2168000f1fb2f008100610049
:1007180000807000e0168800101780004500de0099
:10072800614060000080fb00610060004700dd0060
:10073800e2168000f1f72f00810061000080700050
:10074800e0168800101780004500de006140600058
:100758000080fb00610060004900dd00e2168000b7
:10076800f1df2f008100610000807000e016880032
:10077800101780004500de00614060000080fb002b
:10078800610060004600dd0022178000f1fb2f00a9
:100798008100610000807000201788001017800019
:1007a8004500de00614060000080fb0061006000e1
:1007b8004700dd0022178000f1f72f00810061005b
:1007c8000080700020178800101780004500de00a8
:1007d800614060000080fb006100600062178000db
:1007e800e1ff2f0081006100008070006017880021
:1007f800101780004500de00614060000080fb00ab
:10080800610060000000400062178000d1ff2f00e7
:100818008100610000807000601788001017800058
:100828004500de00614060000080fb006100600060
:100838004600dd00a2178000f1fb2f008100610057
:1008480000807000a0178800101780004500de00a7
:10085800614060000080fb00610060004700dd002f
:10086800a2178000f1f72f0081006100008070005e
:08087800a017880068ff37009b
:020000040000fa
:040880000000000074
:00000001FF
